:020000040800F2
:1000000000040020B10100081F02000821020008BE
:1000100000000000000000000000000000000000E0
:1000200000000000000000000000000023020008A3
:100030000000000000000000250200082702000860
:10004000490200084B0200084D0200084F02000858
:100050005102000853020008550200085702000828
:10006000590200085B0200085D0200085F020008F8
:1000700061020008630200086502000867020008C8
:10008000690200086B020008000000006D02000811
:100090006F02000871020008730200087502000870
:1000A00077020008790200087B0200087D02000840
:1000B0007F0200080000000081020008000000002C
:1000C00082B03348016801220A4302604168314A24
:1000D0000A4042600168304A0A40026001682F4AC3
:1000E0000A40026041682E4A0A404260C16A0F22FB
:1000F0009143C162016B2B4A0A400263416B0122AA
:1001000091434163002181600191009101681204D3
:100110000A43026001688022920211400091019915
:10012000491C01910099002904D10199A022D20112
:100130009142EFD101688903CA0F00920099012909
:1001400024D11121184A1160416841604168416021
:100150004168164A0A4042604168882252030A43B5
:1001600042600168802252040A43026001688901EA
:10017000FCD54168032291434160416802220A4351
:10018000426041680C220A40082AFAD102B0704746
:10019000001002400CB8FFF8FFFFF6FEFFFFFBFF68
:1001A000FFFFC0FFACFEFFFF00200240FF7FC0FF4B
:1001B000094880F3088804200168090E1F22914233
:1001C00005D106480121016005480021016005486C
:1001D0008047054800470000000400201810024036
:1001E00000000140C10000083D02000800F00BF8CB
:1001F000002801D0C046C0460020C046C04600F0DE
:1002000004F800F003F801207047FEE780B500F025
:1002100001F801BD0746384600F006F8FBE77047D5
:10022000FEE770477047704780B5C046C046024A37
:1002300011001820ABBEFBE726000200C046C046F6
:10024000C046C046FFF7D2FFFEE7FEE7FEE7FEE747
:10025000FEE7FEE7FEE7FEE7FEE7FEE7FEE7FEE776
:10026000FEE7FEE7FEE7FEE7FEE7FEE7FEE7FEE766
:10027000FEE7FEE7FEE7FEE7FEE7FEE7FEE7FEE756
:02028000FEE797
:040000050800023DB0
:00000001FF
